S01300006279676765726E323536302E7372656356
S113000071C000001FC200008CC000008AC0000044
S113001088C0000086C0000084C0000082C00000C8
S113002080C000007EC000007CC000007AC00000D8
S113003078C0000076C0000074C0000072C00000E8
S113004070C000006EC000006CC000006AC00000F8
S113005068C0000066C0000064C0000062C0000008
S113006060C000005EC000005CC000005AC0000018
S113007058C0000056C0000054C0000052C0000028
S113008050C000004EC000004CC000004AC0000038
S113009048C0000046C0000044C0000042C0000048
S11300A040C000003EC000003CC000003AC0000058
S11300B038C0000036C0000034C0000032C0000068
S11300C030C000002EC000002CC000002AC0000078
S11300D028C0000026C0000024C0000022C0000088
S11300E020C0000011241FBECFEFD1E2DEBFCDBF80
S11300F000E00CBF12E0A0E0B2E0E4E3FEE000E0C8
S11301000BBF02C007900D92A833B107D9F722E0C4
S1130110A8E3B2E001C01D92A434B207E1F72BD1E9
S113012087C66ECF4FEF60E680E6C0C10895CF92D8
S1130130DF92EF92FF920F931F93CF93DF93CDB78C
S1130140DEB72B970FB6F894DEBF0FBECDBFE982A2
S1130150FA820B831C832D833E834F8358876987E0
S11301607A878B87E980FA8080E380D183FDFCCF96
S1130170B70176956795769567957695679581E34A
S113018081D16E2D6295660F607E82E37BD1602FF4
S113019085E378D10023A1F07E0124E0E20EF11C76
S11301A0CE01800F911DFC0134966F0116E3F70117
S11301B061917F01812F66D11F5FEC14FD04B9F7B3
S11301C070D12B960FB6F894DEBF0FBECDBFDF9172
S11301D0CF911F910F91FF90EF90DF90CF900895F2
S11301E08F929F92AF92BF92CF92DF92EF92FF9243
S11301F00F931F93CF93DF93CDB7DEB72B970FB633
S1130200F894DEBF0FBECDBF4C0181E62FD1A82EDE
S113021082E62CD1B12CAA0CBB1CAA0CBB1CAA0CC8
S1130220BB1C829586958770A82A85E61FD1082F66
S11302308823A1F07E0124E0E20EF11CCE01800FA0
S1130240911DFC0134966F0116E6812F0FD1F70141
S113025081937F011F5FEC15FD05B9F740E061E074
S11302608CE224D1BA82A9820B838BE0FE01319601
S1130270D40101900D928A95E1F7C4012B960FB633
S1130280F894DEBF0FBECDBFDF91CF911F910F91C8
S1130290FF90EF90DF90CF90BF90AF909F908F90A2
S11302A00895CF92DF92EF92FF920F931F93CF9313
S11302B0DF93CDB7DEB72B970FB6F894DEBF0FBE32
S11302C0CDBFE982FA820B831C832D833E834F8347
S11302D0588769877A878B871F920F938A818F93B8
S11302E089818F9386E092E09F938F936FD10F90D3
S11302F00F900F900F900F900F90002351F18C816D
S11303001F928F9382E392E09F938F935FD10F901C
S11303100F900F900F900230E0F07E0125E0E20E86
S1130320F11C0250CE01800F911DFC0136966F0125
S113033000E312E0F70181917F011F928F931F93D5
S11303400F9344D10F900F900F900F90EC14FD0475
S113035089F785E392E04DD12B960FB6F894DEBF72
S11303600FBECDBFDF91CF911F910F91FF90EF9002
S1130370DF90CF900895CF93DF93CDB7DEB72B975F
S11303800FB6F894DEBF0FBECDBF87E690E0B7D0BE
S113039064E972E08CE892E0CFD0A3D0A0D0C2DEB2
S11303A02FEF81EE94E0215080409040E1F700C0AF
S11303B0000040E060EE8FE079D02FEF81EE94E012
S11303C0215080409040E1F700C000000F2EFAEF6A
S11303D0AF2EF02D0F2EF9EABF2EF02D0F2EF2E5E1
S11303E0CF2EF02D912C6894DD24D1F8E0E0F0E0DC
S11303F0A382B482EC2CC0829182D282F92C0D2D7E
S11304001A2D2B2D35814681578160857185828512
S11304108EDECE010196E4DEE980FA800B811C8138
S11304202D813E814F81588569857A858B8539DF99
S11304302FEF81EE94E0215080409040E1F700C01E
S11304400000D4CF1F920F920FB60F9211248F93F6
S11304509F9381E090E090933902809338029F91BA
S11304608F910F900FBE0F901F901895CF93C82FA8
S11304702F9883E03ED08C2F3CD08C2F3AD02F9AEB
S1130480CF910895CF93DF93D82FC62F2F9882E072
S113049030D08D2F2ED08C2F2CD02F9ADF91CF914E
S11304A008952F9881E825D02F9A08951F93CF930C
S11304B0DF93182FD62FC42F2F9885E01AD0812FC1
S11304C018D08D2F16D08C2F14D02F9ADF91CF9166
S11304D01F9108952F9880EC0CD02F9A0895FACF8D
S11304E0089584B1876884B923988CB580658CBDE0
S11304F008958EBD0DB407FEFDCF8EB5089590937B
S1130500C5008093C40088E18093C100E2ECF0E070
S113051080818E6080830895E0ECF0E0908195FF07
S1130520FDCF8093C6000895E0ECF0E0808188233D
S1130530ECF78091C60008950F931F93CF93DF9338
S1130540009731F46115710519F480E090E039C029
S11305508B01EC016EE070E081E090E077D2FC0169
S1130560892B99F380E883830115110571F01387B2
S1130570028781E8838380913A0290913B02892B20
S113058021F4F0933B02E0933A022097C9F0D1871B
S1130590C08783818260838380913C0290913D0275
S11305A0892B71F4F0933D02E0933C0280913E026A
S11305B090913F02892B21F4F0933F02E0933E0295
S11305C0CF01DF91CF911F910F910895CF93DF93C6
S11305D0CDB7DEB7AE014A5F5F4FFA016191719109
S11305E0AF0180913C0290913D0233D0DF91CF91D5
S11305F008950F931F93CF93DF93E0913C02F09102
S11306003D02238121FF1BC08C01D0E0C0E0F80132
S113061081918F0160913C0270913D02DB0118963B
S1130620ED91FC911997882331F01995892B79F371
S1130630DFEFCFEFECCF8AE01995892B19F08FEF1C
S11306409FEF02C08D2F9C2FDF91CF911F910F91AF
S113065008952F923F924F925F926F927F928F9262
S11306609F92AF92BF92CF92DF92EF92FF920F933D
S11306701F93CF93DF93CDB7DEB72B970FB6F894C4
S1130680DEBF0FBECDBF6C017B018A01FC01178266
S11306901682838181FFBFC1CE0101963C01F60120
S11306A09381F70193FD859193FF81917F018823C5
S11306B009F4ADC1853239F493FD859193FF81919D
S11306C07F01853221F4B60190E018D3E8CF912C54
S11306D0212C312CFFE1F315D8F08B3279F038F46A
S11306E0803279F08332A1F4232D20611DC08D3234
S11306F061F0803369F4232D216016C0832D82605C
S1130700382EE32DE4603E2E2AC0F32DF8601DC080
S113071037FC2DC020ED280F2A3040F08E32B9F47A
S113072036FC75C1232D2064322E19C036FE06C056
S11307308AE0989E200D1124922E11C0EAE02E9E8C
S1130740200D1124222EF32DF0623F2E08C08C368A
S113075021F4832D8068382E02C0883641F4F701D5
S113076093FD859193FF81917F018111B3CF982FE0
S11307709F7D9554933028F40C5F1F4F9FE399831A
S11307800DC0833631F0833771F0833509F055C0DD
S113079020C0F801808189830E5F1F4F88248394D1
S11307A0912C530112C02801F2E04F0E511CF801A4
S11307B0A080B18036FE03C0692D70E002C06FEFE7
S11307C07FEFC50190D24C018201F32DFF773F2EBC
S11307D015C0280122E0420E511CF801A080B1800E
S11307E036FE03C0692D70E002C06FEF7FEFC501D4
S11307F068D24C01F32DF0683F2E820133FC19C0FE
S1130800822D90E088169906A0F4B60180E290E06B
S113081075D22A94F5CFF50137FC859137FE819185
S11308205F01B60190E06AD221102A9421E0821A75
S113083091088114910479F7E1C0843611F0893666
S113084039F5F80137FE07C0608171818281938197
S11308500C5F1F4F08C060817181072E000C880B4C
S1130860990B0E5F1F4FF32DFF763F2E97FF09C0A4
S113087090958095709561957F4F8F4F9F4FF0684D
S11308803F2E2AE030E0A30175D2882E861844C09A
S1130890853731F4232D2F7EB22E2AE030E025C097
S11308A0932D997FB92E8F36C1F018F4883579F0DD
S11308B0AEC0803719F0883721F0A9C0E92FE06174
S11308C0BE2EB4FE0DC0FB2DF460BF2E09C034FE55
S11308D00AC0292F2660B22E06C028E030E005C0E9
S11308E020E130E002C020E132E0F801B7FE07C0A9
S11308F060817181828193810C5F1F4F06C060818A
S1130900718180E090E00E5F1F4FA30133D2882EE7
S11309108618FB2DFF773F2E36FE0DC0232D2E7F2C
S1130920A22E891458F434FE0BC032FC09C0832D66
S11309308E7EA82E05C0B82CA32C03C0B82C01C0F1
S1130940B92CA4FE0FC0FE01E80DF11D8081803397
S113095021F49A2D997EA92E09C0A2FE06C0B39453
S1130960B39404C08A2D867809F0B394A3FC10C014
S1130970A0FE06C0B21480F4280C922C9B180DC063
S1130980B21458F4B60180E290E0B8D1B394F8CF31
S1130990B21418F42B1802C0982C212CA4FE0FC0FA
S11309A0B60180E390E0AAD1A2FE16C0A1FC03C068
S11309B088E790E002C088E590E0B6010CC08A2D7B
S11309C0867851F0A1FE02C08BE201C080E2A7FC50
S11309D08DE2B60190E092D1891430F4B60180E33F
S11309E090E08CD19A94F8CF8A94F301E80DF11D2C
S11309F08081B60190E082D18110F6CF222009F4E3
S1130A004ECEB60180E290E079D12A94F7CFF60178
S1130A108681978102C08FEF9FEF2B960FB6F894D3
S1130A20DEBF0FBECDBFDF91CF911F910F91FF901D
S1130A30EF90DF90CF90BF90AF909F908F907F907A
S1130A406F905F904F903F902F9008950F931F9356
S1130A50CF93DF93869F8001879F100D969F100D83
S1130A601124C8010DD0EC01009721F0A80160E029
S1130A7070E032D1CE01DF91CF911F910F91089593
S1130A800F931F93CF93DF938230910510F482E08C
S1130A9090E0E0914202F091430220E030E0A0E0D7
S1130AA0B0E0309719F140815181028113814817D8
S1130AB05907C8F08417950769F4109731F0129616
S1130AC00C93129713961C9327C000934202109321
S1130AD0430222C02115310519F04217530718F4B7
S1130AE09A01BD01EF01DF01F801DBCF21153105CA
S1130AF0F9F0281B390B2430310580F48A819B815D
S1130B006115710521F0FB019383828304C09093E6
S1130B10430280934202FE01329644C0FE01E20F7A
S1130B20F31F8193919322503109398328833AC06A
S1130B302091400230914102232B41F42091020282
S1130B40309103023093410220934002209100022D
S1130B50309101022115310541F42DB73EB7409182
S1130B60040250910502241B350BE0914002F091E0
S1130B704102E217F307A0F42E1B3F0B2817390795
S1130B8078F0AC014E5F5F4F2417350748F04E0FE5
S1130B905F1F50934102409340028193919302C09E
S1130BA0E0E0F0E0CF01DF91CF911F910F91089524
S1130BB0CF93DF93009709F481C0FC01329713822D
S1130BC01282A0914202B0914302109781F42081D5
S1130BD03181820F931F20914002309141022817E6
S1130BE0390751F5F0934102E093400267C0ED01EB
S1130BF020E030E0CE17DF0740F44A815B819E019C
S1130C0041155105F1F0EA01F5CFD383C283408148
S1130C105181840F951FC817D90759F48881998188
S1130C20840F951F0296918380838A819B8193838D
S1130C3082832115310529F4F0934302E0934202A3
S1130C403DC0E901FB83EA8349915991C40FD51F43
S1130C50EC17FD0761F480819181840F951F029642
S1130C60E90199838883828193819B838A83E0E06D
S1130C70F0E012968D919C911397009719F0FD0165
S1130C80DC01F7CF8D919C9111979D012E5F3F4F11
S1130C90820F931F20914002309141022817390797
S1130CA069F4309729F4109243021092420202C070
S1130CB013821282B0934102A0934002DF91CF913C
S1130CC00895FC010590615070400110D8F780959B
S1130CD090958E0F9F1F0895DC0101C06D934150C4
S1130CE05040E0F70895FC016150704001900110FC
S1130CF0D8F7809590958E0F9F1F08950F931F939B
S1130D00CF93DF93FB01238121FD03C08FEF9FEF7E
S1130D102CC022FF16C04681578124813581421799
S1130D20530744F4A081B1819D012F5F3F4F31836C
S1130D3020838C93268137812F5F3F4F378326830F
S1130D4014C08B01EC01FB010084F185E02D1995A1
S1130D50892BE1F6D80116968D919C9117970196EF
S1130D6017969C938E931697CE01DF91CF911F9186
S1130D700F910895FA01AA27283051F1203181F109
S1130D80E8946F936E7F6E5F7F4F8F4F9F4FAF4F8F
S1130D90B1E03ED0B4E03CD0670F781F891F9A1FA2
S1130DA0A11D680F791F8A1F911DA11D6A0F711D56
S1130DB0811D911DA11D20D009F468943F912AE062
S1130DC0269F11243019305D3193DEF6CF0108954A
S1130DD0462F4770405D4193B3E00FD0C9F7F6CF7B
S1130DE0462F4F70405D4A3318F0495D31FD405243
S1130DF0419302D0A9F7EACFB4E0A69597958795D9
S1130E0077956795BA95C9F70097610571050895B7
S1130E109B01AC010A2E0694579547953795279563
S1130E20BA95C9F7620F731F841F951FA01D0895FB
S1070E30F894FFCF60
S1130E3400004402200043414E2D627573206D6509
S1130E4473736167653A202869643A253032582CF3
S1130E54206C656E3A25642C20646174613A7B00CD
S10B0E642C202564007D290007
S9030000FC
